:020000040800F2
:100000002025002099010008F31900087317000843
:10001000D11900087F020008C91C00080000000078
:1000200000000000000000000000000001010008C6
:100030004B0300080000000045010008FD190008FE
:10004000B3010008B3010008B3010008B3010008C0
:10005000B3010008B3010008B3010008B3010008B0
:10006000B3010008B3010008B3010008B3010008A0
:10007000B3010008B3010008B3010008B301000890
:10008000B3010008B3010008B3010008B301000880
:10009000BD1C0008B3010008B3010008B30100084B
:1000A000B3010008B3010008B3010008B301000860
:1000B000751A0008B3010008B3010008B301000875
:1000C000B3010008B3010008B3010008B301000840
:1000D000B3010008B3010008B3010008891C00083F
:1000E000B3010008B3010008B3010008DFF80CD029
:1000F00000F088F80048004741250008202500202E
:10010000224B19680868B0E8F00F80F30988BFF344
:100110006F8F4FF0000080F311884EF00D0E704786
:100120000000000006480068006880F3088862B696
:1001300061B6BFF34F8FBFF36F8F00DF00BF00BF0B
:1001400008ED00E0EFF30980BFF36F8F0F4B1A68E3
:1001500020E9F00F106008B54FF0500080F31188CF
:10016000BFF34F8FBFF36F8F03F02AFB4FF00000F8
:1001700080F31188BDE8084019680868B0E8F00FFE
:1001800080F30988BFF36F8F704700BF1C05002004
:10019000EFF3058070470000064880470648004797
:1001A000FEE7FEE7FEE7FEE7FEE7FEE7FEE7FEE727
:1001B000FEE7FEE7731A0008ED00000840EA0103BD
:1001C0009B0703D009E008C9121F08C0042AFAD20D
:1001D00003E011F8013B00F8013B521EF9D27047D1
:1001E000D2B201E000F8012B491EFBD27047002279
:1001F000F6E710B513460A4604461946FFF7F0FF26
:10020000204610BD064C074D06E0E06840F00103B3
:1002100094E8070098471034AC42F6D3FFF76AFF22
:10022000C0490008E049000870B58C1810F8015B5F
:1002300015F0070301D110F8013B2A1106D110F87F
:10024000012B03E010F8016B01F8016B5B1EF9D183
:100250002B0705D40023521E0DD401F8013BFAE709
:1002600010F8013BCB1A921C03E013F8015B01F874
:10027000015B521EF9D5A142D8D3002070BDFEE724
:1002800070B51F49082809D2DFE800F004062E30B7
:10029000323436381B4800E01B48486000200422F6
:1002A000C1E902200822164E0A61184D087504465D
:1002B000343600214FEA010000EBC402C0F107030D
:1002C00015F812209A400A43401CD1B20828F3DBEB
:1002D00031550F4B0A491A1DA1F1500000F04AF8A0
:1002E000641C402CE5DB70BD0A48D6E70A48D4E719
:1002F0000A48D2E70A48D0E70A48CEE70A48CCE7DE
:10030000E40500203F0101143F0201141801002000
:100310001C0000203F0301143F0401143F05011499
:100320003F0601143F0701143F0801140024204632
:10033000FFF7A6FF012002F021F9641C082CF6DB70
:10034000F4E7012002F01AF9FBE7704772B6FEE706
:1003500090F82020012A07D0022A05D0416A41F4F2
:100360008021416201207047006842690A4342616E
:1003700000207047F0B590F820500468A468012D63
:1003800005D0022D03D0416A41F4802153E014F0DE
:10039000406F01D1E5004BD5C4F30164022C03D9B1
:1003A000416A41F4000146E00125A5401D608D68C9
:1003B0004FF4C0739DB1CE6835434E6845EAC6051B
:1003C000066803EB0417F5514FF4C275076805EB97
:1003D00004150E697E51097D012905D009E00E88BA
:1003E000CD6845EA4655EBE701684E5946F48076FC
:1003F0004E511179D2F805504FF4C67641EA0525E1
:10040000016806EB04168D511178D2F801204FF4E3
:10041000C47541EA0221026805EB041551510068D8
:1004200003EB0411425842F0010242500020F0BD9B
:10043000416A41F4001141620120F0BD10B590F80D
:1004400020300268012B07D0022B05D0416A41F40D
:1004500080214162012010BDD2F8000240F001006D
:10046000C2F80002087D00F01F0301209840D2F876
:100470001C328343C2F81C32CB69B3B9D2F80C32B8
:100480008343C2F80C328C894B6864F31F434C6978
:1004900002EBC404C4F840320C890B6864F31F43B8
:1004A0004C6902EBC404C4F84432CB69012B16D169
:1004B000D2F80C320343C2F80C320C884B6864F358
:1004C0001F434C6902EBC404C4F840320C89CB686A
:1004D00064F31F434C6902EBC404C4F844328B69D3
:1004E000002BD2F804320FD053EA0003C2F80432D2
:1004F0000B69002BD2F8143208D00343C2F814322F
:10050000096A012904D008E08343EFE78343F5E754
:10051000D2F81C120143C2F81C12D2F8000220F0DB
:100520000100C2F80002002010BD704730B590F8FD
:100530002040012C05D0022C03D0416A41F48021D7
:100540005DE00468002955D02469A40754D04FF415
:10055000D874056804EB01142D5915F00405956055
:1005600005682D594ED0ED08556005682C5904F0EA
:100570000204D4604FF4DA74056804EB01142D59B9
:1005800005F00F05156105682D59C5F3072595611F
:1005900005682C59240C54614FF4DC72046802EB9A
:1005A0000112A4581C700468A458240A5C700468E2
:1005B000A458240C9C700468A258120EDA704FF4F0
:1005C000DE72046802EB0112A4581C710468A4587E
:1005D000240A5C710468A458240C9C710468A25815
:1005E000120EDA71006881B1016941F020010161E8
:1005F000002030BDE468A8E7416A41F4001141627F
:10060000012030BD6D0D1560AFE7C16841F02001DC
:10061000C160EDE72DE9F05F0546006800244669FA
:10062000D0F804908768D0F80CB0D0F810A0D0F8BB
:100630001880F10748D0F90714D001218160B8076C
:1006400003D5284600F029FA0CE0780702D54FF4CC
:10065000006407E0380702D54FF4805402E02846D2
:1006600000F01AFAF80516D529684FF480708860F2
:10067000B80503D5284600F012FA0CE0780502D53B
:1006800044F4005407E0380502D544F4804402E005
:10069000284600F003FAF80316D529684FF4803095
:1006A0008860B80303D5284600F0FBF90CE0780316
:1006B00002D544F4004407E0380302D544F4803402
:1006C00002E0284600F0ECF9300707D55FEACB607E
:1006D00004D52968102044F40074C86070074FF0F6
:1006E000080707D55FEA0B7004D52868C76028465D
:1006F00000F066F9B00706D52868C068800702D008
:10070000284600F05FF9700607D55FEACA6004D595
:100710002968102044F480640861B00607D55FEAB8
:100720000A7004D528680761284600F085F9F006AC
:1007300006D528680069800702D0284600F07DF9B8
:10074000B00308D55FEAC96005D529681020486064
:10075000284600F073F9F00307D55FEA097004D565
:1007600028684760284600F09DF9300446D55FEAC6
:10077000497040D5F00504D55FEAC87001D044F057
:100780000104B00504D55FEA887001D544F0020485
:10079000700504D55FEA487001D544F004043005C3
:1007A00029D518F0700F26D008F07000402815D019
:1007B00006DC102809D020280AD0302816D10AE0FB
:1007C00050280ED0602811D10EE044F008040DE04E
:1007D00044F010040AE044F0200407E044F0400430
:1007E00004E044F0800401E044F4807428688169E6
:1007F00021F070018161296804204860002C05D037
:10080000686A204368622846FFF78FFEBDE8F09FC4
:1008100070B5040003D094F8200010B104E001206A
:1008200070BD204600F082F82068016841F00101A7
:10083000016000F02FFA0546052604E000F02AFAD0
:10084000401B0A2811D820684068C007F6D02068ED
:10085000016821F00201016000F01CFA05460BE07E
:1008600000F018FA401B0A2806D9606A40F40030EC
:10087000606284F82060D2E7206840688007EFD487
:10088000207E0128206801683DD021F080010160B0
:10089000607E01282068016838D021F040010160A5
:1008A000A07E01282068016833D021F0200101607A
:1008B000E07E0128206801682ED041F0100101601F
:1008C000207F01282068016829D021F008010160FB
:1008D000607F01282068016824D021F004010160B4
:1008E000D4E902010843D4E90412114308436168C2
:1008F000491E08432168C86100206062012084F815
:100900002000002070BD41F08001C0E741F04001AF
:10091000C5E741F02001CAE721F01001CFE741F01F
:100920000801D4E741F00401D9E7000010B586B012
:100930000021009101910291039100681C498842B5
:1009400033D11C48C16941F00071C161C16901F036
:1009500000710491816941F0080181618069164C40
:1009600000F0080004904FF4807000906946204623
:1009700000F09AF860150090022001900320039087
:100980006946204600F090F80C48416821F4C041C7
:1009900041F0E06141F480414160002205211420D2
:1009A00000F0EAF9142000F0D9F906B010BD0000FB
:1009B0000064004000100240000C014000000140B3
:1009C0007047000070B5194D0021194B6960E9604E
:1009D0000421A960082129612A460021FFF7A6FD0C
:1009E000144968680844082814D2DFE800F00406B7
:1009F000080A0C0E101200240CE001240AE0022464
:100A000008E0032406E0042404E0052402E00624B0
:100A100000E0072405490020054A1C3100EBC4050D
:100A2000135C401C4B550828F8DB70BDFC0500200A
:100A300028000020FFC0FEE77047704770470000A5
:100A400070B5044690F82000012804D0606A40F494
:100A50000020606218E0022084F82000206801680D
:100A600021F00101016000F015F905460EE000BF1C
:100A700000F010F9401B0A2808D9606A40F40030E1
:100A80006062052084F82000012070BD2068406865
:100A9000C007EDD1606270BD704770477047704706
:100AA00070477047704700002DE9F84FDFF8B891A4
:100AB000002409F1040A0AF1040B23460F270BF165
:100AC000040EC9E00125A5402A40AA427DD1674E07
:100AD000D1F804C0ACEB0608B44532D014DCBCF14C
:100AE000030F3AD009DCBCF1000F2AD0BCF1010F92
:100AF0001CD0BCF1020F31D11DE0BCF1110F17D099
:100B0000BCF1120F2AD119E0B8F5881F19D006DC04
:100B1000B8F5803F15D0B8F5801F1FD111E0B8F5AA
:100B2000001F0ED0B8F5041F18D10AE0CB6815E0FD
:100B3000CB681B1D12E0CB6808330FE0CB680C3389
:100B40000CE08B682BB1012B4FF0080303D04561FB
:100B500004E0042302E0056100E00023FF2A01D83D
:100B6000064601E000F104064FEA840501D9A5F12B
:100B70002005D6F8008007FA05FC28EA0C0803FADD
:100B800005F548EA0508C6F800804D68ED0062D515
:100B9000374DAE6946F00106AE61AD6924F003063B
:100BA00005F001050095334D06EB050CDCF8085007
:100BB000A607360F07FA06F825EA0805DFF8B88019
:100BC000404503D14FF0000817E044E0DFF8AC8067
:100BD000404502D14FF001080FE0DFF8A480404506
:100BE00002D14FF0020808E0DFF89880404502D1BA
:100BF0004FF0030801E04FF0040808FA06F848EA4D
:100C00000508CCF808804D68D9F80060ED034D4622
:100C100001D5164300E096432E604D68DAF8006077
:100C2000AD03554601D5164300E096432E604D684E
:100C3000DBF80060ED025D4601D5164300E0964307
:100C40002E604D68DEF80060AD02754601D5164392
:100C500000E096432E60641C0D682A46E5407FF450
:100C600031AFBDE8F88F0000000401400000111012
:100C7000001002400000014000080140000C01404B
:100C800000100140001401400AB1016170470904DD
:100C9000FBE700000148806870470000300000203A
:100CA000024881680278114481607047300000205A
:100CB000074810B5016841F010010160032000F001
:100CC0007BF80F2000F006F800F024F8002010BD9B
:100CD0000020024070B50D4D04464FF47A7128781B
:100CE000B1FBF0F00A490968B1FBF0F000F0F2FA4C
:100CF00048B9102C07D200222146501E00F03CF8C3
:100D000000206C6070BD012070BD0000300000202C
:100D10003C0000200F4808B5816941F00101816164
:100D2000816901F001010091C16941F08051C16107
:100D3000C069002200F0805000900F21901E00F04A
:100D40001BF80548416821F0E06141F00071416005
:100D500008BD00000010024000000140002809DB2F
:100D600000F01F02012191404009800000F1E020C5
:100D7000C0F8001170470000F0B40E4B1B680C4621
:100D8000C3F30223C3F10705042D00D90425191D5F
:100D9000072901D2002300E0DB1E012606FA05F137
:100DA000491E214099409E40761E16403143F0BCBA
:100DB00000F08BBF0CED00E0064900F00702086868
:100DC0004FF6FF03184040EA0220034A1043086030
:100DD000704700000CED00E00000FA052DE9F04737
:100DE0000F46050061D0434E306800F00700B8425E
:100DF00009D2306820F0070038433060306800F0D6
:100E00000700B84251D128683B4C810712D54007F2
:100E100003D5606840F4E06060602878000703D57F
:100E2000606840F4605060606068A96820F0F0007D
:100E3000084360602878C00728D06868012810D06F
:100E40002168022810D0890700292EDA616821F074
:100E5000030101436160FFF71DFF804641F28839BD
:100E60000DE021688903EFE78901EDE7FFF712FF45
:100E7000A0EB0801494502D90320BDE8F08760686E
:100E8000696800F00C00B0EB810FEFD1306800F022
:100E90000700B8420BD9306820F0070038433060B3
:100EA000306800F00700B84201D00120E5E728785B
:100EB000400705D56068E96820F4E0600843606099
:100EC0002878000706D56068296920F4605040EA58
:100ED000C100606000F038F86168084AC1F303118E
:100EE000515CC8400649086006480068FFF7F2FEFA
:100EF0000020C2E7002002400010024064470008C2
:100F00003C0000203400002004480549006849687E
:100F1000044AC1F30221515CC84070473C000020E4
:100F200000100240744700080448054900684968F9
:100F3000044AC1F3C221515CC84070473C00002004
:100F4000001002407447000812A185B00FC98DE857
:100F50000F0014A0144A006804905168134801F06F
:100F60000C03042B10D0082B0ED1C1F38343C9030B
:100F70001DF803000AD5516804AAC1F34041515C31
:100F80000A4A5043B0FBF1F005B0704708494843A6
:100F9000FAE7000002030405060708090A0B0C0D16
:100FA0000E0F1010010200000010024000127A0023
:100FB00000093D002DE9F84F040070D02078C04DA5
:100FC000C00749D06868C0F38100012807D068686D
:100FD000C0F38100022809D16868C00306D52868DB
:100FE000800339D560680028E7D035E06068B0F547
:100FF000803F0BD010B1B0F5A02F11D0286820F49D
:1010000080302860286820F4802002E0286840F4BE
:1010100080302860606890B1FFF73CFE06460AE029
:10102000286840F480202860F0E700BFFFF732FE18
:10103000801B642873D828688003F7D50CE0FFF77D
:1010400029FE064605E000BFFFF724FE801B64284A
:10105000F0D828688003F7D420789A4E80074FF0A4
:1010600001094FF0000839D5686810F00C0F07D05F
:101070006868C0F38100022809D16868C00306D4FB
:101080002868800714D52069012808D110E020695C
:10109000B0B1C6F80090FFF7FDFD074605E00AE194
:1010A000FFF7F8FDC01B0228C4D828688007F7D5D1
:1010B0002868616920F0F80040EAC10028600DE06E
:1010C000C6F80080FFF7E6FD074604E0FFF7E2FD03
:1010D000C01B022823D828688007F7D4207800078F
:1010E0002CD57948A169D9B1C0F80090FFF7D2FD9D
:1010F000074604E0FFF7CEFDC01B02280FD8686A40
:101100008007F7D571484FF4FA510068B0FBF1F051
:10111000009000BF0098411E0091FAD20EE080E0DE
:10112000C0F80080FFF7B6FD074604E0FFF7B2FD08
:10113000C01B022875D8686A8007F7D4207840075A
:1011400060D5E8690027C00008D4E86940F0805005
:10115000E861E869012700F0805000905C48016870
:10116000C90513D40168834641F480710160FFF71B
:1011700091FD824606E000BFFFF78CFDA0EB0A0060
:1011800064284ED8DBF80000C005F5D5E0680128DA
:101190000AD008B1052813D0286A20F0010028627F
:1011A000286A20F0040002E0286A40F0010028626A
:1011B000E06841F2883B98B1FFF76CFD82460BE096
:1011C000286A40F004002862EEE700BFFFF762FDE6
:1011D000A0EB0A0159455AD8286A8007F6D50CE0D9
:1011E000FFF758FD824605E0FFF754FDA0EB0A012A
:1011F00059454CD8286A8007F6D41FB1E86920F019
:101200008050E861E06988B36968C1F3810102290F
:1012100044D00228C6F8608004D0FFF73BFD0446A6
:1012200038E034E0FFF736FD074604E0FFF732FD13
:10123000C01B02282BD828688001F7D4206AB0F59B
:10124000803F05D16868A16820F4003008436860D9
:10125000D4E908010843696821F4741108436860FF
:10126000C6F86090FFF716FD044606E025E000BFD3
:10127000FFF710FD001B022809D828688001F7D568
:101280001BE000BFFFF706FD001B022802D9032068
:10129000BDE8F88F28688001F4D40EE00128F7D06B
:1012A0006868226A00F48031914204D1616A00F4D6
:1012B0007010884201D00120EAE70020E8E7000032
:1012C0000010024000004242800442423C000020E4
:1012D0000070004010B5401EB0F1807F01D30120A6
:1012E00010BD4FF0E02460610F21601700F0EDFCAD
:1012F0000020A06107202061002010BD70B590F88B
:101300003C20012A26D0012480F83C40022280F8AB
:101310003D2003685A689D6822F070060A683243CF
:101320005A600D4B02689A4208D0B2F1804F05D046
:101330000A4B9A4202D00A4B9A4204D1496825F0DE
:1013400080031943916080F83D40002180F83C10F3
:10135000084670BD022070BD002C01400004004012
:101360000008004010B5040003D094F83D0010B10F
:1013700007E0012010BD002084F83C00204600F06A
:101380001FF8022084F83D00211D206800F082FB38
:10139000012084F8460084F83E0084F83F0084F879
:1013A000400084F8410084F8420084F8430084F847
:1013B000440084F8450084F83D00002010BD000082
:1013C00008B50068B0F1804F12D10A48C16941F0F8
:1013D0000101C161C069002200F0010000900521F7
:1013E0001C20FFF7C9FCBDE808401C20FFF7B6BC75
:1013F00008BD00000010024070B5044690F83C00A3
:10140000012817D0012584F83C50022084F83D00C3
:101410002068826822F0770222F47F4282600868A6
:10142000502830D00DDC20284DD005DC98B3102892
:101430003BD148E0022070BD302844D0402834D150
:1014400039E0602828D0702806D0B0F5805F2CD015
:10145000B0F5005F29D10AE0CB68D1E9012120680D
:1014600000F04EFB2068816841F0770109E0CB680D
:10147000D1E90121206800F043FB2068816841F434
:101480008041816011E0CA684968206800F04AFB29
:101490005021206807E016E0CA684968206800F01B
:1014A00052FB6021206800F035FB84F83D5000209D
:1014B00084F83C0070BDCA684968206800F032FBBF
:1014C00040212068EFE7226801461046EBE770B53F
:1014D000040004D094F83D00002510B106E001207E
:1014E00070BD84F83C50204600F022F8242084F897
:1014F0003D002068C16821F40051C160204600F021
:1015000035FB2068016921F490410161206841693F
:1015100021F02A0141612068C16841F40051C16095
:101520002564202084F83D0084F83E00002070BD32
:1015300070B586B00024009401940294039403686B
:101540002B482A4E022103220515B34221D183697B
:1015500043F480438361836903F480430493836984
:1015600043F0040383618069224E00F0040004907C
:101570000802CDE90001039269463046FFF794FA6C
:10158000CDE90054694630460294FFF78DFA06B063
:1015900070BD194EB342FAD1C36943F48023C361CD
:1015A000C36903F480230493836943F008038361D0
:1015B0008069CDE9005100F00800CDE903200F4D0E
:1015C00069462846FFF770FAE814CDE90004694639
:1015D00028460294FFF768FA002205212720FFF72A
:1015E000CBFB2720FFF7BAFBD1E700000038014012
:1015F000001002400008014000480040000C01407B
:101600002DE9F84F044690F83E009A4616460D46DE
:10161000202853D1FDB1F6B194F83C0001284DD0FB
:10162000012084F83C0000272764222084F83E0033
:101630002763FFF72FFBA6858146E685A0684FF458
:101640008058404501D1206940B12E465FF0000529
:1016500084F83C7027E00120BDE8F88F0026F7E70A
:101660004B46002220212046CDF800A000F0DAFAF7
:1016700008B10320F0E726B1A06840451BD038B17F
:1016800008E020684068C0F3080025F8020B07E076
:10169000206980B12068406800F07F0006F8010BE7
:1016A000E08D401EE085E08D0028D9D1202084F80F
:1016B0003E000020D0E720684068EFE70220CBE73B
:1016C0002DE9F843044690F83D001F4616460D46A6
:1016D00020284CD1C5B1BEB194F83C00012846D0B9
:1016E000012084F83C004FF00008C4F8408021201D
:1016F00084F83D00FFF7CEFAA6848146E684A06810
:10170000B0F5805F03D004E00120BDE8F8832069D4
:1017100028B12E465FF0000584F83C800EE00026DC
:10172000FAE78021204600F07DFAA0B9AEB116F8A4
:10173000010B21684860E08C401EE084E08C4B4641
:101740004FF0000200970028EBD14FF040012046F7
:1017500000F068FA30B10320D7E735F8020BC0F388
:101760000800E6E7202084F83D000020CDE70220B5
:10177000CBE7FEE770B52448224900240160092127
:10178000C0E901144FF4E021C0E903414FF4C00166
:1017900041610476012545768576C47604774477E1
:1017A000FFF736F808B1FEF7D1FD17480E212830B3
:1017B000C0E90554046044608460C460C56104618C
:1017C000C0E9085101462838FEF738FE08B1FEF797
:1017D000BDFD0D48FFF734F908B1FEF7B7FD022152
:1017E0000948FEF7B5FD08B1FEF7B0FD0121064836
:1017F000FEF7AEFD002803D0BDE87040FEF7A6BDA1
:1018000070BD0000006400409405002010B5184829
:1018100000F060FF174C164A012160611032084643
:1018200000F0B4FF124AA061183A0221102000F023
:10183000FDFE0F4A2061A83A00210F4801F010F880
:101840000B4A2060843A00210C4801F009F8084A4C
:101850006060603A00210A4801F002F8044AA06082
:101860003C3A0021074800F0FBFFE06010BD00009B
:101870004447000800000020F5190008D5190008A9
:101880002D0300084303000810B586B00020009027
:101890000190029003901548816941F02001816117
:1018A000816901F020010491816941F008018161A1
:1018B000816901F008010491816941F004018161AD
:1018C00080690B4C00F004000490002203212046A4
:1018D000FFF7DAF903210122CDE90012CDE9022157
:1018E00069462046FFF7E0F806B010BD0010024040
:1018F000000C014010B586B00024164800940194F5
:101900000294039404944FF08041059401604721B0
:10191000C0E9011440F2D661C0E903148461FFF705
:1019200021FD08B1FEF712FD4FF48050009069468A
:101930000848FFF761FD08B1FEF708FD049404A90B
:1019400004480594FFF7DAFC002801D0FEF7FEFCFE
:1019500006B010BD5806002010B50E4C0C480C21E6
:1019600020604FF4E13060600020A060E060C4E9D6
:101970000401A061E0612046FFF7A9FD08B1FEF770
:10198000E5FC2068C16841F02001C16010BD000085
:1019900000380140A00600200C4810B50A4901603B
:1019A0004FF4E1314160002181600C22C160C0E947
:1019B00004128161C161FFF78AFD002803D0BDE8F0
:1019C0001040FEF7C3BC10BD00480040E4060020F4
:1019D000FEE7000008B5002001224FF4E133114674
:1019E000009000F0D3FB00F007FA00BF00F032FCDB
:1019F000FCE7FEE7012000F0C1FDFBE710B5FFF7B3
:101A00004FF902F081FC012803D0BDE8104002F03C
:101A100007B910BD30B58FB028216846FEF7E7FB47
:101A200014210AA8FEF7E3FB01210804CDE9001008
:101A30000024029402250491CDE907504FF4E010F0
:101A400009906846FFF7B6FA08B172B6FEE70F20B4
:101A5000CDE90A054FF48060CDE90C4002210AA8C7
:101A60000E94FFF7BBF9002801D072B6FEE70FB065
:101A700030BD7047054800680169C90705D06FF09F
:101A800001010161024800680047704758060020C4
:101A900088000020F0B50268164B174C174D4FF028
:101AA0008047984205D0B84203D0A04201D0A84256
:101AB00003D122F070064A683243984205D0B842FA
:101AC00003D0A04201D0A84203D122F44074CA68D6
:101AD00022434C6922F08002224302608A68C2627B
:101AE0000A688262984201D109690163012141615A
:101AF000F0BD0000002C0140000400400008004040
:101B000010B5846842EA032224F47F440A43224346
:101B1000826010BD826822F070020A4342F0070121
:101B20008160704710B5036A046A24F001040462FE
:101B3000846924F0F00444EA021423F00A020A4300
:101B40008461026210BD10B5036A23F010030362C2
:101B50008369046A23F4704343EA023224F0A00349
:101B600043EA01118261016210BD000070B50446B4
:101B700000680169E26821F4405111430161216963
:101B8000A0680843616908432168CA6841F20C6390
:101B90009A430243CA6020684169A26921F44071F6
:101BA000114341611E492068884202D1FFF7BCF908
:101BB00001E0FFF7A9F900EBC00101EB001260683A
:101BC00064218000B2FBF0F3B3FBF1F36FF0180671
:101BD0007343B2FBF0F5B2FBF0F605EB830532235D
:101BE00003EB0515B5FBF1F5B6FBF1F605F0F005D5
:101BF00005EB0615B2FBF0F6B2FBF0F0B0FBF1F02E
:101C00006FF01802504306EB800003EB0010B0FBAE
:101C1000F1F0216800F00F002844886070BD0000DA
:101C2000003801402DE9F041984617460E4604461B
:101C3000069D1DE0681C1BD02DB1FFF72BF8A0EB13
:101C40000800A84214D92068C16821F4D071C1608D
:101C50002068416921F001014161202084F83D00A4
:101C600084F83E00002084F83C000320BDE8F081A9
:101C70002068006836EA000004D00020B842D9D0BD
:101C80000020F3E70120F9E710B5094C2068C0688F
:101C9000800602D50748006880472068C0680006B3
:101CA00004D505480068BDE81040004710BD00009D
:101CB000E406002080000020840000200148FEF798
:101CC000A9BC000094050020FEE70907090E0028C2
:101CD00004DB00F1E02080F80014704700F00F00F2
:101CE00000F1E02080F8141D704702E008C8121FC0
:101CF00008C1002AFAD170477047002001E001C1F5
:101D0000121F002AFBD1704770B50A4D0846002407
:101D10000A211646E9700722314601F093FE012898
:101D200005D144F6206001F09DFE012800D0032477
:101D3000204670BD400000202DE9F0410F4C0746C1
:101D40001646A08888460025FF2801D9AFF30080F9
:101D5000A088032804D3A188A06801F00FFA18B165
:101D600005252846BDE8F081A06810F8011B3970F0
:101D7000A188891E3180C8F80000F2E740000020E9
:101D800070B5104C03460025607810B10525284633
:101D900070BD491E0126E1600846E6800B70E188AF
:101DA0001144E180E18801F0E9F90146E088A26888
:101DB0000244401CE080117026700121002001F0D7
:101DC000E3FAE4E74000002010B50021012001F013
:101DD000DBFA034900204870BDE8104001F01CBE4A
:101DE0004000002010B50021084601F0CDFABDE802
:101DF000104001F0EBBA000070B5064D00242878C1
:101E0000012802D00624204670BD286980470020A2
:101E10002870F8E76000002070B50C46098800259E
:101E200005292DD1417840F2CF760A0281781143FD
:101E3000C278130202791A43531EB34220D2002300
:101E40002380012300F8013B2688761C2680560754
:101E500003D003EBD203DEB201E0C2F3C70600F801
:101E6000016B23885B1C2380002300F0D7FA18B194
:101E700001F06AF9054604E020883044208000E043
:101E80000325284670BD70B50C4609880025052934
:101E90002DD1417840F2CF760A0281781143C27881
:101EA000130202791A43531EB34220D20023238027
:101EB000022300F8013B23885B1C2380530704D0D6
:101EC000012303EBD203DEB201E0C2F3C70600F840
:101ED000016B23885B1C238000F0D8FA18B101F055
:101EE00033F9054604E020883044208000E00325D3
:101EF000284670BD70B50C4609880026052923D1F7
:101F0000417805790A02817811436A1E7C2A1BD820
:101F100000222280032200F8012B22880023521C79
:101F200022806A0000F8012B2288521C22802A4657
:101F300000F0AEFA18B101F007F9064605E0208876
:101F400000EB4500208000E00326304670BD70B5F0
:101F50000C4609880026052925D1417805790A0211
:101F600081781143C27845EA02256A1E7C2A1AD27A
:101F700000222280042200F8012B2288521C228099
:101F80006A0000F8012B2288521C22802A4600F0A9
:101F9000B7FA18B101F0D8F8064605E0208800EB42
:101FA0004500208000E00326304670BD2DE9F04159
:101FB0000446088800270D460A283ED36078267913
:101FC0000102A078227A40EA0108E078A17946EA85
:101FD00000266079731E41EA0021E0797C2B42EAF9
:101FE0000022607A28D83AB3792A25D8B0EB420F7C
:101FF00022D1012304F10A0000F04AFA98B9002125
:102000002980172121702988601C491C29807100B2
:1020100000F8011B29880023491C298032464146CB
:1020200000F036FA18B101F08FF8074605E028886D
:1020300000EB4600288000E003273846BDE8F08129
:1020400070B5064C0D4606492288401CFEF7B6F8CE
:102050002088401C2880002070BD00005000002017
:102060002807002038B509880024052909D14178BE
:102070000A028178114302791AB9C278FF2A03D083
:1020800012B10324204638BD00228DF80120C0780B
:10209000FF280CD08DF8002001231A46684600F076
:1020A000BDF90028EED001F04FF80446EAE7012020
:1020B0008DF80000F0E710B509880024052902D04A
:1020C0000324204610BD417801230A028178C01CF8
:1020D00011431A4600F0DCF90028F2D001F034F880
:1020E0000446EEE72DE9F0410D4609880024052954
:1020F00023D9417846790A0281781143C2781302C4
:1021000002791A43530704D0012303EBD203DBB255
:1021100001E0C2F3C703571EB7F5F66F0DD2B34205
:102120000BD10123801D00F079F918B101F00CF8F2
:10213000044603E00520288000E003242046BDE893
:10214000F08170B50D460988002406291BD341781B
:102150000A0281781143C278130202791A43437943
:10216000561E772E0FD85606360E9E420BD10123EF
:10217000801D00F08DF918B100F0E6FF044603E081
:102180000520288000E00324204670BD2DE9F041A1
:102190001D46069B1746064641B1F72906D81E4C38
:1021A0000846217100211EB1012E15D002252EE016
:1021B0001A4A22611A4A62611A4AE2601A4AC4E95A
:1021C00006211A4921621A4961621A49A1622A4606
:1021D000394600F099F812E0174A2261174A626105
:1021E000174AE260174AC4E90621174921621749D4
:1021F00061621749A1622A463946FFF785FD05004D
:1022000005D101F001FC28B166710120207028463B
:10221000BDE8F0810325FAE760000020ED23000807
:10222000092400089523000845230008693A00089E
:10223000113B0008D13A0008C91D0008E51D00083F
:10224000811D0008391D00082D380008413900089B
:102250001139000838B52B4C207808B1062038BD5C
:10226000684601F0C3FB01284AD19DF80000E8B39D
:10227000012802D0022843D10FE0224AA369921D0F
:10228000911CC81F984788BB60782179884200D08C
:1022900060BB022001F0C0FB32E0A0680121194BB5
:1022A0000278A270E170002113F12C0313F8315071
:1022B00065B1954207D103EBC1014A681149891DF7
:1022C0009047E07002E0491C1029EFDB607868B1AC
:1022D000E07880B10021E180A17841F08002A1681E
:1022E0000A70E288521C92B2E28000E008E0885452
:1022F000E088401CE080D4E90213E2882079984706
:10230000002038BD6000002070B515460846002446
:102310000822294601F096FB01280DD1B5F5964F0C
:1023200001D9232003E006496800B1FBF0F080B238
:1023300001F098FB012800D00324204670BD000066
:10234000A07F17002DE9F041104C07461646A088E3
:1023500088460025FF2801D9AFF30080A088042813
:1023600004D3A1880A4800F099FF18B10525284632
:10237000BDE8F081064800783870A088C01E308023
:102380000348401CC8F80000F1E70000540000209A
:102390004807002070B5134C0346002560780128DB
:1023A00002D00525284670BD491E0126A1600846B9
:1023B00066800B70618811446180618800F06EFF57
:1023C0006188094A5318491C61801870010A6088A5
:1023D0000244401C6080117026700121002000F032
:1023E000D3FFDFE75400002048070020054910B55F
:1023F000002048700146012000F0C6FFBDE81040F3
:1024000001F002B85400002010B50021084600F089
:10241000BBFFBDE8104000F0D9BF000070B500253B
:1024200071B38C1840F20126B44229D8164C648846
:10243000091B154C0C347BB1012B22D11DE000BFD0
:1024400034F81130521E1B0A00F8013B14F8113009
:1024500000F8013B92B2491C002AF1D111E000BF03
:1024600010F8013B521E1B0224F8113010F8016BCA
:1024700092B2334324F81130491C002AF0D100E015
:102480000125284670BD00000C0100200120704786
:1024900070B5002571B38C1840F20126B44229D8DA
:1024A000164C6488091B154C0C347BB1012B22D1CE
:1024B0001DE000BF34F81130521E1B0A00F8013B2A
:1024C00014F8113000F8013B92B2491C002AF1D1F6
:1024D00011E000BF10F8013B521E1B0224F811301E
:1024E00010F8016B92B2334324F81130491C002AD2
:1024F000F0D100E00125284670BD00000C0100204D
:1025000030B50023B9B18C18052C14D80B4C248895
:10251000091B0A4C241D0BE034F81150521E2D0AE1
:1025200000F8015B14F8115000F8015B92B2491CED
:10253000002AF1D100E00123184630BD0C01002033
:10254000FEF7B6FBFFF766FAFFF79EF9FFF712F901
:10255000FFF702FAFFF7CEF9FFF71EFA0022052176
:102560002520FEF709FC2520FEF7F8FB00F022F8F5
:10257000FFF74CF900F03AF8FEE7000010B501460D
:10258000EFF3058048B9EFF3108030B908480068D0
:10259000022805D1EFF3118010B16FF0050404E0BB
:1025A000002411B1084601F04DF8204610BD00008E
:1025B0006C050020EFF30580002809D1EFF31080AF
:1025C00030B9094A1068022805D1EFF3118111B121
:1025D0006FF00500704710B14FF0FF3070470120D9
:1025E00010600020704700006C05002010B5EFF36C
:1025F0000580002809D1EFF3108030B90A4A10682D
:10260000022805D1EFF3118111B16FF0050010BD63
:10261000012802D04FF0FF3010BD0220106001F001
:102620007FF8002010BD00006C050020F8B584463E
:1026300014464FF00005EFF30580002845D1EFF375
:102640001080002841D122480068022803D1EFF30E
:102650001180002839D1BCF1000F36D0002934D0C8
:102660004FF0FF32B4B1A06858B1E368502B08D3E3
:10267000236933B163690CFB01F6B34201D3012234
:1026800009E040B9E06830B9206920B9606910B943
:10269000002200E00022012A01D04AB10DE0002012
:1026A00000906046A368226901F04EFB054604E0F5
:1026B0000022604601F023FB054635B10CB12168CC
:1026C00000E00021284600F055FF2846F8BD000034
:1026D0006C05002070B504464FF00005EFF305804F
:1026E00000284FD1EFF3108000284BD12648006816
:1026F000022803D1EFF31180002843D10CB16068A8
:1027000000E0002010F0010F01D0012600E00026BB
:1027100010F0080F36D14FF0FF305CB1A16821B145
:10272000E268502A01D3012005E021B9E16811B91E
:10273000002000E00020012801D068B116E02EB191
:102740000420A16801F0CDFA05460FE00120A16840
:1027500001F0C7FA054609E026B1042001F0B5FAF8
:10276000054603E0012001F0B0FA054635B10CB191
:10277000216800E00021284600F0FCFE15B10EB1F2
:1027800045F00105284670BD6C050020F8B50E46E1
:1027900014464FF00005EFF3058100295BD1EFF3FC
:1027A0001081002957D12D490968022903D1EFF37F
:1027B000118100294FD100284DD086424BD84FF0CF
:1027C000FF325CB1A36823B1E168502901D3012233
:1027D00005E023B9E16811B9002200E00022B2F15E
:1027E000FF3F38D0012809D0012A2AD0314601F014
:1027F0002DFA05467DB354B3216829E0012A16D08D
:1028000003220021012001F07AFA0546002DF1D0C3
:10281000002EEFD000231A461946284601F014FB7B
:102820000128E7D0284600F0B9FE0025E2E70320A2
:102830000090002211460120A36801F085FA0546A8
:10284000E4E73146A26801F01FFA0546D2E700210D
:10285000284600F08FFE2846F8BD00006C050020D9
:102860002DE9F04385B00B464FF000070397EFF3D7
:10287000058100295DD1EFF31081002959D12F493D
:102880000968022903D1EFF31181002951D10028F1
:102890004FD080244FF0180C04970DF110094FF021
:1028A000FF3152B3166806B1B146956905B1AC4621
:1028B000ACF10105382D03D2157915F0010F03D0C5
:1028C00005B00020BDE8F083556905B1AC08D2F829
:1028D0000880B8F1000F07D0D6685C2E04D31669C3
:1028E00016B10DB1012109E0B8F1000F06D1D5688C
:1028F00025B9156915B9002100E00021012901D091
:1029000061B116E09168126901920291CDF800C0A0
:102910002246494601F0C8FC03900AE003A9019150
:10292000A2B2CDF800C0494601F088FC012800D0D1
:102930000397039805B0BDE8F08300006C05002004
:102940002DE9F04104460F46134E75693068001DAD
:1029500000F0BAFCB4F1FF3F07D137B13068BDE8F1
:10296000F041011D0D4800F002BD2C443068446068
:10297000AC4206D23068011DB068BDE8F04100F0FD
:10298000DBBC3068011D706800F0D6FC306B8442FF
:1029900000D23463BDE8F0811C050020380D002012
:1029A00070B5044600F046FD1C4D2869401C2861A6
:1029B000286810B1E86938B10CE02C60286901285A
:1029C00008D100F09BF905E02868E16AC06A8842F6
:1029D00000D82C60E86A401CE8626064E06AA9697B
:1029E000884200D9A8610E4900EB800001EB80000D
:1029F000211D00F0BCFC00F03DFDE86900280CD072
:102A00002868E16AC06A884207D206494FF08050C0
:102A10000860BFF34F8FBFF36F8F70BD1C050020A0
:102A20008808002004ED00E038B500F003FD0F4CED
:102A3000A068B8B90E4800F071FC0E4800F06EFCBA
:102A40000B4820601430606000200B4B009003F1B5
:102A5000500210210A2001F077F9A06010B107A1FF
:102A600000F088FDBDE8384000F004BD58050020A6
:102A70004C0D0020600D0020740D0020546D72512B
:102A80000000000070B50D4CE068002815D00C4E19
:102A900000F0D0FCF068C568281D00F015FC206926
:102AA000401E2061E068401EE06000F0E3FC284624
:102AB00000F051F8E0680028EAD170BD1C05002044
:102AC000240D00200B46026C002A0CD0C168114472
:102AD000C160D0F804C0614501D30168C160C1681C
:102AE0001846FDF76BBB70472DE9F04104461646CA
:102AF0000027A56B226C002A10D0C6B1E068FDF754
:102B00005DFBE168206C091AE1602268914202D203
:102B10006168081AE060022E16D017E02068A8B994
:102B2000606801F06BFC0746002060600EE0A06862
:102B3000FDF744FB216CA0680844A06061688842EE
:102B400004D32068A06001E005B16D1E681CA0637D
:102B50003846BDE8F08110B5044694F859100029B4
:102B60000BD0012911D0022914D0502080F31188F4
:102B7000BFF34F8FBFF36F8FFEE7206B00F090FC29
:102B80002046BDE8104000F08BBC2046BDE8104058
:102B900000F086BC10BD000007490A6811680029D2
:102BA00004D00021016019B1002070470121F9E72C
:102BB000D068006870470000580500204FF440615D
:102BC000104810F0070F06D0C01D20F007000D4977
:102BD000411AC1F540610C4A106000235360014462
:102BE000083921F00701103A11604B600B600B1A95
:102BF000436001604068906050604FF00040D060DA
:102C0000704700001C15002080050020074E4FF083
:102C10008054074DFFF736FF30680128FAD92C6041
:102C2000BFF34F8FBFF36F8FF4E7000088080020D9
:102C300004ED00E0002808D0002141600160C1607F
:102C400000231A46194601F0FFB8704770B51D46BB
:102C5000049C002909D02260E06321640121204600
:102C600001F0AAF884F84C5070BD2460F4E72DE917
:102C7000F05F82460B9F0A9D0C9C0E4690469B4639
:102C80004FEA8801A522206BFDF7AAFA206BA8F174
:102C9000010100EB810020F007094FF0000800203F
:102CA0002218315C82F83410315C11B1401C1028BC
:102CB000F6D384F84380382D00D33725E562E564E8
:102CC000C4F85080201D00F034FB04F1180000F01F
:102CD00030FB2461C5F13800A0616462C4F85480FF
:102CE00084F858805A465146484600F0C5FA20609C
:102CF000002F00D03C60BDE8F09F000070B50024BC
:102D00000F4D04EB840005EB800000F007FB641C12
:102D1000382CF6D30B4800F001FB0B4800F0FEFA0C
:102D20000A4800F0FBFA0A4800F0F8FA094800F0F7
:102D3000F5FA0948034941601431816070BD000013
:102D400088080020E80C0020FC0C0020100D00205A
:102D5000240D0020380D00201C05002010B414495B
:102D600000E011460A688242FBD34B6803EB010C7A
:102D7000844503D140681844486008460C68D0F880
:102D800004C00CEB0003A3420CD10A4B1B689A420F
:102D900006D05268624442600A681268026002E02B
:102DA000036000E00260814200D0086010BC704700
:102DB000800500207005002010B5002441600061EE
:102DC000DFF838C091420BD8D11A8269914201D301
:102DD000012410E0011DDCF8040000F0ADFA0AE067
:102DE0009A4203D2994201D3012404E0011DDCF888
:102DF000000000F0A1FA204610BD00005805002098
:102E000010B5044600F016FBA06B20B1002400F0C2
:102E100031FB204610BD0124F9E710B5044600F04F
:102E200009FBA06BE16B884201D1012400E0002482
:102E300000F020FB204610BDF8B505460E461448AC
:102E40000068C068C468201D00F03EFAE0690128EF
:102E500010D1A0692B46411932462046FFF7ACFF3E
:102E600040B100200346014600902A46204601F06A
:102E7000DBFB28B1616A01B02046BDE8F04008479D
:102E8000502080F31188BFF34F8FBFF36F8FFEE7A1
:102E90005805002030B587B0334D002202A9A8683C
:102EA00001F0E8F800285CD00298002803DA039AC1
:102EB000059904989047029800284BDB049C6069B0
:102EC00010B1201D00F000FA01A800F097F80246AA
:102ED00002980A283ED2DFE800F00505053D2637B6
:102EE00005053D260398A169034601442046FFF7E6
:102EF00063FF00B3616A20468847E069012829D151
:102F0000002000900398A16900234218194620462A
:102F100001F08AFB78B9502080F31188BFF34F8FFE
:102F2000BFF36F8FFEE70398A06128B181181346A5
:102F30002046FFF741FF0DE0502080F31188BFF3DA
:102F40004F8FBFF36F8FFEE794F82C0010B9204627
:102F500000F0A6FA002202A9A86801F08BF8002868
:102F6000A2D107B030BD000058050020F8B50546D5
:102F70000C4600F01DFC684600F040F8064600983C
:102F800010B101F0B7FAF8BD44B9B54206D801F066
:102F9000B1FA31462846FFF74FFFF8BD0C481CB187
:102FA0004168096891B10024A91B2246806800F09D
:102FB00023FB01F09FFA0028EFD106494FF0805023
:102FC0000860BFF34F8FBFF36F8FF8BD0124EBE7AD
:102FD0005805002004ED00E0074948680068002813
:102FE00005D04868C068C0684068086370474FF003
:102FF000FF300863704700001C05002070B50446D0
:1030000001F090F90546074E3069854204D200F080
:103010000BF80120206001E0002020603561284687
:1030200070BD000058050020F8B51B4E30680068E0
:10303000002824D000273068C0680568C468201DB7
:1030400000F042F9616A20468847E069012812D100
:10305000A0692844A84206D960602461211D306817
:1030600000F06AF907E000232A4619462046009737
:1030700001F0DAFA40B1306800680028DBD130682E
:10308000716831607060F8BD502080F31188BFF323
:103090004F8FBFF36F8FFEE7580500200A48406846
:1030A000B0F1FF3F07D0502080F31188BFF34F8F5E
:1030B000BFF36F8FFEE7502080F31188BFF34F8F6F
:1030C000BFF36F8FFEE700008805002082B001A8E3
:1030D000FFF762FD0199FFF749FFFFF7DBFEF6E717
:1030E00070B5044600F0A6F994F94550002D0CDDAA
:1030F000606A50B104F1240001F0C0F908B100F099
:10310000D1FA681E45B2002DF2DC4FF0FF3684F88C
:10311000456000F0AFF900F08DF994F94450002DAE
:103120000CDD206950B104F1100001F0A7F908B1DD
:1031300000F0B8FA681E45B2002DF2DC84F8446055
:10314000BDE8704000F096B9002804D0012803D0F3
:10315000072803D0042070470220704706207047DC
:1031600010B5092801D8303004E0A0F10A01052982
:1031700002D83730C0B210BDAFF30080002203E0A8
:1031800010F8013B1A44D2B2491E89B2F8D250421B
:10319000C0B270472DE9F0410546002600F008FB5B
:1031A000334F386808B9FFF709FDF86805424ED17A
:1031B0009DB1083515F0070F0FD005F00700C0F1DD
:1031C0000800054415F0070F07D0502080F3118840
:1031D000BFF34F8FBFF36F8FFEE7002D37D07868B6
:1031E000854234D823490846046801E02146044654
:1031F0006068A84202D220680028F7D1386884426B
:1032000025D0086800F10806206808606068411B46
:1032100010290FD9601910F0070F07D0502080F344
:103220001188BFF34F8FBFF36F8FFEE7416065607A
:10323000FFF794FD61687868401A7860BA68904238
:1032400000D2B860F868084360600020206001F098
:1032500051F916F0070F07D0502080F31188BFF303
:103260004F8FBFF36F8FFEE73046BDE8F08100005F
:103270007005002080050020001F4FF08073036060
:10328000001F21F001010160001F03490160143893
:1032900002602038704700009D30000870B5094D6D
:1032A000FF231A4605F5807606E000BF10F8014BB3
:1032B00054402A5D5A40335D491E89B2F6D242EA33
:1032C000032070BD7C4700080169436882689A60EA
:1032D000836842685A604A68824201D182684A60C3
:1032E000002202610868401E0860086870470000FC
:1032F000034B036003F15C0008608020106070479E
:10330000640E0020044B036003F15C0008604FF47E
:103310008070106070470000C010002000F10801AC
:1033200041604FF0FF328260C160016100210160A5
:10333000704700210161704710B4D1F800C0BCF1A2
:10334000FF3F02D000F1080202E0026904E01A46E1
:1033500053681C686445FAD953684B6099608A6069
:10336000516008610168491C016010BC70474268E7
:103370004A6093688B609368596091600861016846
:10338000491C01607047000070B50E4C00280D46C6
:103390002268D06803D040F02000D06007E020F021
:1033A0002000D060012211460748FDF76DFC20681F
:1033B000C16815B141F0800101E021F08001C160D8
:1033C00070BD0000E4060020000C01400D480168BB
:1033D0000A6A41F211131A4207D10A6A9B101A4273
:1033E00003D10A6822F001020A60026800215162DA
:1033F0000168CA6822F00102CA6000686FF001012A
:10340000016170475806002009486FF00101026809
:1034100011610168CA6842F00102CA6002680021B5
:1034200051620068016841F00101016070470000CD
:1034300058060020502080F31188BFF34F8FBFF350
:103440006F8F0A494868401C486001280CD1084821
:10345000006810F0FF0F07D0502080F31188BFF3F1
:103460004F8FBFF36F8FFEE7704700008805002085
:1034700004ED00E009494868002806D0401E486075
:10348000002801D180F311887047502080F3118803
:10349000BFF34F8FBFF36F8FFEE70000880500205A
:1034A00070B5002827D0A0F10804134D6068E968C2
:1034B000084207D1502080F31188BFF34F8FBFF32C
:1034C0006F8FFEE722683AB1502080F31188BFF376
:1034D0004F8FBFF36F8FFEE78843606000F068F99D
:1034E00060686968084468602046FFF737FCBDE8FB
:1034F000704000F0FFBF70BD700500204FF0E0206D
:1035000000210161816105494FF47A720968B1FBBC
:10351000F2F1491E41610721016170473C00002022
:1035200010B5FCF735FE114910280ED300F1E0204C
:1035300090F8F0030A78904207D2502080F3118867
:10354000BFF34F8FBFF36F8FFEE7094800688968AC
:1035500000F4E060884207D9502080F31188BFF35F
:103560004F8FBFF36F8FFEE710BD0000880500206E
:103570000CED00E00022084B53F832C0BCF1000F04
:1035800003D0521C082AF7D3704743F8321003EBDC
:10359000C2014860704700004808002010B504468A
:1035A000002C0BD0204600F013F894F846000028B9
:1035B0000CD12046BDE81040FFF772BF502080F3C9
:1035C0001188BFF34F8FBFF36F8FFEE710BD000070
:1035D0000021084A02EBC1035B68834206D1002048
:1035E00042F8310002EBC10148607047491C0829CC
:1035F000F0D370474808002070B504460D461646C3
:10360000FFF718FF94F94400B0F1FF3F4FF00000BE
:1036100001D184F8440094F94510B1F1FF3F01D184
:1036200084F84500FFF726FFA06B28B932462946EB
:1036300004F1240000F056F82046BDE87040FFF782
:103640004FBD000010B502460020002A12D00F48DE
:10365000806B38B1502080F31188BFF34F8FBFF3D8
:103660006F8FFEE700F0A4F800211046FFF768F91D
:1036700000F040FF002807D105494FF08050086056
:10368000BFF34F8FBFF36F8F10BD00001C050020EC
:1036900004ED00E002498A6A0260496941607047AE
:1036A0001C05002001490120486270471C050020CC
:1036B00010B50C4600280BD0094A126802F1180117
:1036C000FFF73AFE2046BDE810400121FFF738B968
:1036D000502080F31188BFF34F8FBFF36F8FFEE749
:1036E0001C05002070B50D46144600280DD00B496E
:1036F00009681831FFF73BFE0CB14FF0FF3521464A
:103700002846BDE87040FFF71BB9502080F31188B0
:10371000BFF34F8FBFF36F8FFEE700001C05002043
:1037200030B587B000250695059504AA05A906A819
:10373000FFF7DEFD069805990191029000230095A0
:1037400017A11948049A00F0AFFD184C606308B146
:10375000012000E00020012801D100F031FF012804
:103760000AD0B0F1FF3F19D1502080F31188BFF388
:103770004F8FBFF36F8FFEE7502080F31188BFF3A8
:103780004F8FBFF36F8F4FF0FF3020630120E06158
:10379000656107B0BDE8304000F0E8B907B030BD62
:1037A00049444C45000000000D2C00081C05002079
:1037B0000248816B491C8163704700001C05002092
:1037C000184B986B002802D00120586270470020E7
:1037D00058629869144900EB800251F822203AB9E6
:1037E000C0B1401E00EB800251F82220002AF7D021
:1037F00000EB800201EB82014A6852684A6001F1E5
:10380000080C624501D152684A604968C96819606C
:1038100098617047502080F31188BFF34F8FBFF33A
:103820006F8FFEE71C05002088080020F8B5374C94
:103830000027207808B1AFF30080684600F0F4F864
:1038400060780025012670B3012802D002285AD1E1
:1038500039E0FFF7D9FD9DF800003A2807D00D2880
:1038600008D0A0F13001092907D8C8B20DE0A57031
:10387000A58048E00220607045E0A0F141010529E3
:1038800002D83738C0B200E0FF20A17811B1012979
:1038900039D10DE0A188FF2906D8A288A1680001CE
:1038A0008854A6702FE025E06570FFF78FFD2AE0B1
:1038B000A288A16811440A7802430A70A088401CBB
:1038C000A080A5701FE09DF80000E178884207D134
:1038D000FFF77CFD6570012000F09EF8074612E0BE
:1038E0003A2801D065700EE0A570A5806670FFF7DC
:1038F0008BFD08E09DF800003A2804D1FFF784FD15
:10390000A580A57066703846F8BD00004000002014
:103910000A4810B54178012909D0022907D0417819
:10392000012906D04078022803D0AFF3008000219F
:103930004170FFF74BFD002010BD0000400000204B
:1039400070B5294C0026607808B1AFF3008020786C
:103950000025052846D2DFE800F041030A31360091
:103960003A2000F071F802202070A5703AE0E0885B
:10397000F0B1A1781C48C06811B1012932D108E02A
:1039800000780009FFF7ECFB00F05EF80120A07062
:1039900028E0007800F00F00FFF7E2FB00F054F899
:1039A000E068401CE060A570E088401EE08019E0FF
:1039B0000D2000F049F80320207013E0E07800F0BB
:1039C00043F80420F8E72570032000F025F80646A8
:1039D00000210120FFF7D8FC257003E00021012021
:1039E000FFF7D2FC304670BD40000020054902467A
:1039F00000204B78002B04D008781070002048700D
:103A0000012070471805002002490020487001205D
:103A10007047000018050020024901224A70087012
:103A2000104670471805002010B5012301461A46BC
:103A30000348FDF7E5FD08B1002010BD012010BDD1
:103A4000E40600200120704701B501231A466946AB
:103A50000348FDF735FE08B1002008BD012008BD70
:103A6000E40600200120704738B5174C0025207867
:103A700008B1AFF300806846FFF7D6FF607830B139
:103A8000124A012807D0022810D0032801D1FFF7DD
:103A9000BBFC284638BD0020A0809DF80000A1880E
:103AA0000A44491CA180107002200BE0A088FF2866
:103AB00007D89DF80010A0880244401CA080117017
:103AC000E5E703206070E2E754000020480700208B
:103AD00070B50E4D0024687870B102280BD0032811
:103AE0000DD0687858B16878022808D06878032823
:103AF00005D0AFF300800120FFF78EFF0446FFF7EB
:103B000065FC01206870204670BD00005400002054
:103B100070B5154C00256078012801D0AFF3008006
:103B2000207810B101281CD104E000210120FFF70A
:103B30002BFC16E0608850B1A0680078FFF784FF86
:103B4000A068401CA0606088401E608009E00320DF
:103B5000FFF762FF054600210120FFF715FC00205A
:103B60002070284670BD00005400002000B583B0CE
:103B7000284908780290FF200870087801909DF885
:103B800004009DF8042000F0F000904207D050207F
:103B900080F31188BFF34F8FBFF36F8FFEE79DF85F
:103BA00004001D4B00F050001870072098609DF82D
:103BB000040010F0800F0BD09868401E98609DF8AC
:103BC0000400400001909DF8040010F0800FF3D134
:103BD0009868032807D0502080F31188BFF34F8FD7
:103BE000BFF36F8FFEE74FF4407098600298087043
:103BF0000A48016841F470010160016841F07041B8
:103C00000160FFF77BFC00205860FCF78BFA03B0E3
:103C1000002000BD00E400E08805002020ED00E069
:103C200010B5502080F31188BFF34F8FBFF36F8F13
:103C300000F07EFB18B104494FF08050086000206E
:103C400080F3118810BD000004ED00E010B50C46B3
:103C5000002809D084420FD9502080F31188BFF387
:103C60004F8FBFF36F8FFEE7502080F31188BFF3B3
:103C70004F8FBFF36F8FFEE70222002100F03FF865
:103C8000002800D0846310BD38B50C46002809D048
:103C900084420FD9502080F31188BFF34F8FBFF3B8
:103CA0006F8FFEE7502080F31188BFF34F8FBFF373
:103CB0006F8FFEE70221134600220091114600F0AB
:103CC00043F8002800D0846338BD10B502460021B7
:103CD000012000F014F804462046FEF7ABFF204612
:103CE00010BD38B50B46002200901146012000F0AF
:103CF0002BF804462046FEF79DFF204638BDF8B558
:103D000005460E461746002D14D0DEB105FB06F021
:103D10005030FFF73FFA044654B104F1500200203E
:103D200084F846003B46314628460094FEF78EFF55
:103D30002046F8BD502080F31188BFF34F8FBFF3AA
:103D40006F8FFEE70020E3E738B5049D002804D01C
:103D50005BB102B189B1C2B120E0502080F311887B
:103D6000BFF34F8FBFF36F8FFEE7502080F31188B2
:103D7000BFF34F8FBFF36F8FFEE7502080F31188A2
:103D8000BFF34F8FBFF36F8FFEE739B1502080F341
:103D90001188BFF34F8FBFF36F8FFEE74FF0500CCA
:103DA000CDF800C01C46012384F846302B46009411
:103DB000FEF74CFF204638BD70B504460D46002C7A
:103DC00025D0FFF737FB226CE16B206801FB020076
:103DD00060600020A0632068A060E16B226C206816
:103DE000491E01FB0200E0604FF0FF3084F8440000
:103DF00084F845009DB104F11000FFF78FFA04F13B
:103E00002400FFF78BFAFFF735FB012070BD50202F
:103E100080F31188BFF34F8FBFF36F8FFEE72069E8
:103E20000028F0D004F1100000F028FB0028EAD0B0
:103E300004494FF080500860BFF34F8FBFF36F8F7E
:103E4000E1E7000004ED00E02DE9FF4782B0044601
:103E50008A461F460025002C03D0BAF1000F08D077
:103E600011E0502080F31188BFF34F8FBFF36F8FA5
:103E7000FEE7206C38B1502080F31188BFF34F8FDC
:103E8000BFF36F8FFEE7022F0AD1E06B012807D046
:103E9000502080F31188BFF34F8FBFF36F8FFEE781
:103EA00000F032FA48B9049838B1502080F31188F4
:103EB000BFF34F8FBFF36F8FFEE700264FF08058A0
:103EC000DFF8F090FFF7B6FAA06BE16B884205D3FC
:103ED000022F03D0049808B335B329E03A4651467F
:103EE0002046FEF701FE616A59B104F1240000F09A
:103EF000C5FA68B1C9F80080BFF34F8FBFF36F8F69
:103F000006E028B1C9F80080BFF34F8FBFF36F8F71
:103F1000FFF7B0FA06B00120BDE8F087FFF7AAFA74
:103F200006B00020BDE8F0876846FFF7B3FB012527
:103F3000FFF7A0FAFFF73CFCFFF77CFA94F9440086
:103F4000B0F1FF3F01D184F8446094F94500B0F12D
:103F5000FF3F01D184F84560FFF78CFA04A9684659
:103F600000F02CF940B12046FFF7BAF800F0C2FA91
:103F700006B00020BDE8F0872046FEF74EFF90B166
:103F800004F110000499FFF793FB2046FFF7A8F80F
:103F900000F0B0FA002895D1C9F80080BFF34F8F28
:103FA000BFF36F8F8EE72046FFF79AF800F0A2FA72
:103FB00088E7000004ED00E02DE9F047044689465B
:103FC00017461E46002C03D0B9F1000F08D011E0AF
:103FD000502080F31188BFF34F8FBFF36F8FFEE740
:103FE000206C38B1502080F31188BFF34F8FBFF39E
:103FF0006F8FFEE7022E0AD1E06B012807D0502018
:1040000080F31188BFF34F8FBFF36F8FFEE7FFF789
:1040100087FA5020EFF3118880F31188BFF34F8F98
:10402000BFF36F8FA06BE16B884206D3022E04D0E2
:10403000002088F31188BDE8F08794F94550324696
:1040400049462046FEF750FDB5F1FF3F04D0681CFD
:1040500084F845000120ECE7606A0028FAD004F1FA
:10406000240000F00BFA0028F4D0002FF2D0012039
:104070003860EFE72DE9F74783B004468A4600250C
:10408000002C03D0BAF1000F08D011E0502080F3CB
:104090001188BFF34F8FBFF36F8FFEE7206C38B1ED
:1040A000502080F31188BFF34F8FBFF36F8FFEE76F
:1040B00000F02AF948B9059838B1502080F31188EA
:1040C000BFF34F8FBFF36F8FFEE700274FF080588D
:1040D000DFF8E490FFF7AEF9A66BC6B15146204673
:1040E000FEF7F0FC701EA063206950B104F11000CF
:1040F00000F0C4F928B1C9F80080BFF34F8FBFF3B7
:104100006F8FFFF7B7F906B00120BDE8F08705987B
:1041100008B135B109E0FFF7ADF906B00020BDE800
:10412000F0876846FFF7B6FA0125FFF7A3F9FFF716
:104130003FFBFFF77FF994F94400B0F1FF3F01D155
:1041400084F8447094F94500B0F1FF3F01D184F840
:104150004570FFF78FF905A9684600F02FF868B1A0
:104160002046FEF7BDFF00F0C5F92046FEF748FEE9
:104170000028AFD006B00020BDE8F0872046FEF74B
:104180003FFE90B104F124000599FFF791FA204613
:10419000FEF7A6FF00F0AEF900289BD1C9F8008019
:1041A000BFF34F8FBFF36F8F94E72046FEF798FF62
:1041B00000F0A0F98EE7000004ED00E070B50546C0
:1041C0000C46002D15D0E4B1FFF734F9DFF868C0D4
:1041D000DCF814006B68C11A2268B2F1FF3F18D0F6
:1041E0002E68DCF828C0664515D0834213D8012418
:1041F0001DE0502080F31188BFF34F8FBFF36F8F06
:10420000FEE7502080F31188BFF34F8FBFF36F8F0D
:10421000FEE700240BE08A4206D9501A20602846A7
:10422000FFF738FA002402E0002020600124FFF7A5
:1042300021F9204670BD00001C0500202DE9F04F3B
:1042400085B081460F9F0E9E8A4690469B464FEA58
:104250008800FEF79FFF054628000AD05C20FEF785
:1042600099FF04460CB1256304E02846FFF718F9CE
:1042700000E000249CB1002084F8590003905B46C4
:10428000424651460197009602944846FEF7EFFCDD
:104290002046FEF785FB05B00120BDE8F08F05B094
:1042A0004FF0FF30BDE8F08F70B586B00646DDF800
:1042B00028C00C9C0B98002816D0ECB15C25049506
:1042C0002063022084F85900002005AD0390CDF84A
:1042D00000C0019502943046FEF7C9FC2046FEF767
:1042E0005FFB059806B070BD502080F31188BFF3C6
:1042F0004F8FBFF36F8FFEE7502080F31188BFF31D
:104300004F8FBFF36F8FFEE70548C169002903D0C7
:10431000806B18B100207047012070470220704761
:104320001C05002001484069704700001C05002062
:104330002DE9F04100262F4FB86B002808D0386ACD
:10434000401C3862786A00B101263046BDE8F08131
:104350007869451C7D619DB97868006838B1502046
:1043600080F31188BFF34F8FBFF36F8FFEE778683C
:10437000B9687960B860B86A401CB862FEF72CFE74
:10438000386BDFF8748085420DD37868006838B1E7
:104390007868C068C468606885420ED2386302E0FD
:1043A0004FF0FF3038633868C06A00EB800058F87F
:1043B00020000128C6D90126C4E7201DFEF784FF8E
:1043C000A06A18B104F11800FEF77EFFE16AB8692F
:1043D000814200D9B96101EB810008EB8000211D09
:1043E000FEF7C5FFE06A3968C96A8842CDD3012665
:1043F000CBE700001C0500208808002070B50446AB
:104400000021002833D01B4D2868844207D050205B
:1044100080F31188BFF34F8FBFF36F8FFEE7206DDE
:1044200038B1401E2065E36CE26A9A421FD040B169
:104430001DE0502080F31188BFF34F8FBFF36F8FC3
:10444000FEE7201DFEF740FFE06CE062C0F138009F
:10445000A061E06AA969884200D9A861064900EB19
:10446000800001EB8000211DFEF781FF012108463D
:1044700070BD00001C0500208808002070B5C068D1
:10448000C468002C14D004F11800FEF71DFF164D6F
:10449000A86BA8B104F118011448FEF768FFE06AA0
:1044A0002968C96A88421CD901200121696270BD4E
:1044B000502080F31188BFF34F8FBFF36F8FFEE75B
:1044C000201DFEF701FFE06AA969884200D9A861B2
:1044D000074900EB800001EB8000211DFEF747FF3C
:1044E000DDE7002070BD00001C050020100D00203D
:1044F000880800202DE9F047002400272D4DA86BE7
:10450000002807D0FEF796FFA86B401EA863A86B93
:1045100040B149E0502080F31188BFF34F8FBFF3C3
:104520006F8FFEE7286900283ED0234E30684FF099
:10453000010800B3A6F59169F068C46804F1180099
:10454000FEF7C2FE201DFEF7BFFEE06AA9698842A1
:1045500000D9A86100EB800009EB8000211DFEF767
:1045600006FFE06A2968C96A884201D3C5F8248039
:1045700030680028E0D10CB1FEF72EFD2C6A4CB15A
:10458000FFF7D6FE08B1C5F82480641E002CF7D1D1
:1045900000202862686A38B1012708493807086096
:1045A000BFF34F8FBFF36F8FFEF764FF3846BDE850
:1045B000F08700001C050020100D002004ED00E035
:1045C00030B587B00024FEF72FFA134DA868B0B1BC
:1045D00000200690059004AA05A906A8FEF792FE01
:1045E00005990698022200920191029000230BA1E6
:1045F0000C48049AFFF758FEE86000B1012414B19A
:1046000007B0204630BD502080F31188BFF34F8F94
:10461000BFF36F8FFEE7000058050020546D722035
:1046200053766300CD300008F0B585B084460A9D0E
:1046300016461F460022BCF1000F14D0164CA0688D
:1046400000B300910196CDF808C006291BDAFFF7E8
:104650005BFE02280FD000231A466946A068FFF7C8
:10466000F3FB024615E0502080F31188BFF34F8F13
:10467000BFF36F8FFEE700232A466946A068FFF765
:10468000E3FB024605E000233A466946FFF794FC47
:10469000024605B01046F0BD58050020A0490008AC
:1046A000000000000000000000000000000000000A
:1046B00000020000180000000000000000000000E0
:1046C0009449000800000000000000000000000005
:1046D00000000000000200000800000000000000D0
:1046E000000000008C4900080000000000000000ED
:1046F00000000000000000000002000008000000B0
:1047000000000000000000008449000800000000D4
:104710000000000000000000000000000002000097
:104720000800000000000000000000007C490008B4
:104730000000000000000000000000000000000079
:1047400000000000B8490008000000000000000060
:1047500000000000AC49000800000000000000005C
:10476000000000000000000000000000010203043F
:1047700006070809000000000102030400C181408F
:1047800001C0804101C0804100C1814001C0804121
:1047900000C1814000C1814001C0804101C0804111
:1047A00000C1814000C1814001C0804100C1814001
:1047B00001C0804101C0804100C1814001C08041F1
:1047C00000C1814000C1814001C0804100C18140E1
:1047D00001C0804101C0804100C1814000C18140D1
:1047E00001C0804101C0804100C1814001C08041C1
:1047F00000C1814000C1814001C0804101C08041B1
:1048000000C1814000C1814001C0804100C18140A0
:1048100001C0804101C0804100C1814000C1814090
:1048200001C0804101C0804100C1814001C0804180
:1048300000C1814000C1814001C0804100C1814070
:1048400001C0804101C0804100C1814001C0804160
:1048500000C1814000C1814001C0804101C0804150
:1048600000C1814000C1814001C0804100C1814040
:1048700001C0804101C0804100C1814000C0C10130
:10488000C30302C2C60607C705C5C404CC0C0DCDC0
:104890000FCFCE0E0ACACB0BC90908C8D81819D930
:1048A0001BDBDA1A1EDEDF1FDD1D1CDC14D4D51560
:1048B000D71716D6D21213D311D1D010F03031F150
:1048C00033F3F23236F6F737F53534F43CFCFD3D80
:1048D000FF3F3EFEFA3A3BFB39F9F83828E8E92970
:1048E000EB2B2AEAEE2E2FEF2DEDEC2CE42425E520
:1048F00027E7E62622E2E323E12120E0A06061A190
:1049000063A3A26266A6A767A56564A46CACAD6D3F
:10491000AF6F6EAEAA6A6BAB69A9A86878B8B979AF
:10492000BB7B7ABABE7E7FBF7DBDBC7CB47475B5DF
:1049300077B7B67672B2B373B17170B050909151CF
:104940009353529296565797559594549C5C5D9DFF
:104950005F9F9E5E5A9A9B5B9959589888484989EF
:104960004B8B8A4A4E8E8F4F8D4D4C8C448485459F
:104970008747468682424383418180406D795175E5
:1049800065756500436D645461736B0043616E54DB
:1049900061736B004D6F646275735461736B0000DB
:1049A00064656661756C745461736B006D794269FE
:1049B0006E61727953656D006D794D75746578001F
:1049C000E0490008000000209405000028020008CB
:1049D000444A0008940500208C1F0000FA1C0008BF
:1049E0000130320182109324F4134807021420028C
:1049F0002B023211134120330804134F1F330803D5
:104A000013F51E2A08701343213308061AB7203203
:104A1000171AAD20298C1A192032051A6518320F81
:104A20001AE50829741A87180930DC2952890C09FB
:104A3000FD0209FD0209FD0209FD0201741AAA0125
:044A40004100000031
:04000005080000ED02
:00000001FF
